{
  "_format": "hh-sol-artifact-1",
  "contractName": "LevelUp",
  "sourceName": "contracts/LevelUp.sol",
  "abi": [
    {
      "inputs": [
        {
          "internalType": "contract Prime",
          "name": "_addr",
          "type": "address"
        }
      ],
      "stateMutability": "nonpayable",
      "type": "constructor"
    },
    {
      "anonymous": false,
      "inputs": [
        {
          "indexed": true,
          "internalType": "address",
          "name": "owner",
          "type": "address"
        },
        {
          "indexed": true,
          "internalType": "address",
          "name": "approved",
          "type": "address"
        },
        {
          "indexed": true,
          "internalType": "uint256",
          "name": "tokenId",
          "type": "uint256"
        }
      ],
      "name": "Approval",
      "type": "event"
    },
    {
      "anonymous": false,
      "inputs": [
        {
          "indexed": true,
          "internalType": "address",
          "name": "owner",
          "type": "address"
        },
        {
          "indexed": true,
          "internalType": "address",
          "name": "operator",
          "type": "address"
        },
        {
          "indexed": false,
          "internalType": "bool",
          "name": "approved",
          "type": "bool"
        }
      ],
      "name": "ApprovalForAll",
      "type": "event"
    },
    {
      "anonymous": false,
      "inputs": [
        {
          "indexed": false,
          "internalType": "address",
          "name": "_user",
          "type": "address"
        },
        {
          "indexed": false,
          "internalType": "uint256",
          "name": "_tokenId",
          "type": "uint256"
        }
      ],
      "name": "ClassUploaded",
      "type": "event"
    },
    {
      "anonymous": false,
      "inputs": [
        {
          "indexed": true,
          "internalType": "address",
          "name": "previousOwner",
          "type": "address"
        },
        {
          "indexed": true,
          "internalType": "address",
          "name": "newOwner",
          "type": "address"
        }
      ],
      "name": "OwnershipTransferred",
      "type": "event"
    },
    {
      "anonymous": false,
      "inputs": [
        {
          "indexed": true,
          "internalType": "address",
          "name": "from",
          "type": "address"
        },
        {
          "indexed": true,
          "internalType": "address",
          "name": "to",
          "type": "address"
        },
        {
          "indexed": true,
          "internalType": "uint256",
          "name": "tokenId",
          "type": "uint256"
        }
      ],
      "name": "Transfer",
      "type": "event"
    },
    {
      "inputs": [
        {
          "internalType": "address",
          "name": "to",
          "type": "address"
        },
        {
          "internalType": "uint256",
          "name": "tokenId",
          "type": "uint256"
        }
      ],
      "name": "approve",
      "outputs": [],
      "stateMutability": "nonpayable",
      "type": "function"
    },
    {
      "inputs": [
        {
          "internalType": "address",
          "name": "owner",
          "type": "address"
        }
      ],
      "name": "balanceOf",
      "outputs": [
        {
          "internalType": "uint256",
          "name": "",
          "type": "uint256"
        }
      ],
      "stateMutability": "view",
      "type": "function"
    },
    {
      "inputs": [],
      "name": "currentClassToken",
      "outputs": [
        {
          "internalType": "uint256",
          "name": "",
          "type": "uint256"
        }
      ],
      "stateMutability": "view",
      "type": "function"
    },
    {
      "inputs": [],
      "name": "destroy",
      "outputs": [],
      "stateMutability": "nonpayable",
      "type": "function"
    },
    {
      "inputs": [
        {
          "internalType": "uint256",
          "name": "tokenId",
          "type": "uint256"
        }
      ],
      "name": "getApproved",
      "outputs": [
        {
          "internalType": "address",
          "name": "",
          "type": "address"
        }
      ],
      "stateMutability": "view",
      "type": "function"
    },
    {
      "inputs": [
        {
          "internalType": "address",
          "name": "owner",
          "type": "address"
        },
        {
          "internalType": "address",
          "name": "operator",
          "type": "address"
        }
      ],
      "name": "isApprovedForAll",
      "outputs": [
        {
          "internalType": "bool",
          "name": "",
          "type": "bool"
        }
      ],
      "stateMutability": "view",
      "type": "function"
    },
    {
      "inputs": [],
      "name": "name",
      "outputs": [
        {
          "internalType": "string",
          "name": "",
          "type": "string"
        }
      ],
      "stateMutability": "view",
      "type": "function"
    },
    {
      "inputs": [],
      "name": "owner",
      "outputs": [
        {
          "internalType": "address",
          "name": "",
          "type": "address"
        }
      ],
      "stateMutability": "view",
      "type": "function"
    },
    {
      "inputs": [
        {
          "internalType": "uint256",
          "name": "tokenId",
          "type": "uint256"
        }
      ],
      "name": "ownerOf",
      "outputs": [
        {
          "internalType": "address",
          "name": "",
          "type": "address"
        }
      ],
      "stateMutability": "view",
      "type": "function"
    },
    {
      "inputs": [
        {
          "internalType": "uint256",
          "name": "tokenId",
          "type": "uint256"
        }
      ],
      "name": "payForQuestion",
      "outputs": [],
      "stateMutability": "nonpayable",
      "type": "function"
    },
    {
      "inputs": [],
      "name": "renounceOwnership",
      "outputs": [],
      "stateMutability": "nonpayable",
      "type": "function"
    },
    {
      "inputs": [
        {
          "internalType": "address",
          "name": "from",
          "type": "address"
        },
        {
          "internalType": "address",
          "name": "to",
          "type": "address"
        },
        {
          "internalType": "uint256",
          "name": "tokenId",
          "type": "uint256"
        }
      ],
      "name": "safeTransferFrom",
      "outputs": [],
      "stateMutability": "nonpayable",
      "type": "function"
    },
    {
      "inputs": [
        {
          "internalType": "address",
          "name": "from",
          "type": "address"
        },
        {
          "internalType": "address",
          "name": "to",
          "type": "address"
        },
        {
          "internalType": "uint256",
          "name": "tokenId",
          "type": "uint256"
        },
        {
          "internalType": "bytes",
          "name": "data",
          "type": "bytes"
        }
      ],
      "name": "safeTransferFrom",
      "outputs": [],
      "stateMutability": "nonpayable",
      "type": "function"
    },
    {
      "inputs": [
        {
          "internalType": "address",
          "name": "operator",
          "type": "address"
        },
        {
          "internalType": "bool",
          "name": "approved",
          "type": "bool"
        }
      ],
      "name": "setApprovalForAll",
      "outputs": [],
      "stateMutability": "nonpayable",
      "type": "function"
    },
    {
      "inputs": [
        {
          "internalType": "bytes4",
          "name": "interfaceId",
          "type": "bytes4"
        }
      ],
      "name": "supportsInterface",
      "outputs": [
        {
          "internalType": "bool",
          "name": "",
          "type": "bool"
        }
      ],
      "stateMutability": "view",
      "type": "function"
    },
    {
      "inputs": [],
      "name": "symbol",
      "outputs": [
        {
          "internalType": "string",
          "name": "",
          "type": "string"
        }
      ],
      "stateMutability": "view",
      "type": "function"
    },
    {
      "inputs": [],
      "name": "token",
      "outputs": [
        {
          "internalType": "contract Prime",
          "name": "",
          "type": "address"
        }
      ],
      "stateMutability": "view",
      "type": "function"
    },
    {
      "inputs": [
        {
          "internalType": "uint256",
          "name": "tokenId",
          "type": "uint256"
        }
      ],
      "name": "tokenURI",
      "outputs": [
        {
          "internalType": "string",
          "name": "",
          "type": "string"
        }
      ],
      "stateMutability": "view",
      "type": "function"
    },
    {
      "inputs": [
        {
          "internalType": "address",
          "name": "from",
          "type": "address"
        },
        {
          "internalType": "address",
          "name": "to",
          "type": "address"
        },
        {
          "internalType": "uint256",
          "name": "tokenId",
          "type": "uint256"
        }
      ],
      "name": "transferFrom",
      "outputs": [],
      "stateMutability": "nonpayable",
      "type": "function"
    },
    {
      "inputs": [
        {
          "internalType": "address",
          "name": "newOwner",
          "type": "address"
        }
      ],
      "name": "transferOwnership",
      "outputs": [],
      "stateMutability": "nonpayable",
      "type": "function"
    },
    {
      "inputs": [
        {
          "internalType": "string",
          "name": "title",
          "type": "string"
        },
        {
          "internalType": "string",
          "name": "about",
          "type": "string"
        },
        {
          "internalType": "string",
          "name": "cover",
          "type": "string"
        }
      ],
      "name": "uploadClass",
      "outputs": [
        {
          "internalType": "uint256",
          "name": "",
          "type": "uint256"
        }
      ],
      "stateMutability": "nonpayable",
      "type": "function"
    }
  ],
  "bytecode": "0x608060405260016009553480156200001657600080fd5b5060405162001b2238038062001b228339810160408190526200003991620001d8565b604080518082018252600781526604c6576656c55760cc1b60208083019182528351808501909452600384526204c56560ec1b908401528151919291620000839160009162000132565b5080516200009990600190602084019062000132565b505050620000b6620000b0620000dc60201b60201c565b620000e0565b600a80546001600160a01b0319166001600160a01b039290921691909117905562000245565b3390565b600680546001600160a01b038381166001600160a01b0319831681179093556040519116919082907f8be0079c531659141344cd1fd0a4f28419497f9722a3daafe3b4186f6b6457e090600090a35050565b828054620001409062000208565b90600052602060002090601f016020900481019282620001645760008555620001af565b82601f106200017f57805160ff1916838001178555620001af565b82800160010185558215620001af579182015b82811115620001af57825182559160200191906001019062000192565b50620001bd929150620001c1565b5090565b5b80821115620001bd5760008155600101620001c2565b600060208284031215620001ea578081fd5b81516001600160a01b038116811462000201578182fd5b9392505050565b600181811c908216806200021d57607f821691505b602082108114156200023f57634e487b7160e01b600052602260045260246000fd5b50919050565b6118cd80620002556000396000f3fe608060405234801561001057600080fd5b50600436106101375760003560e01c806370a08231116100b8578063a22cb4651161007c578063a22cb4651461026b578063b88d4fde1461027e578063c87b56dd14610291578063e985e9c5146102a4578063f2fde38b146102e0578063fc0c546a146102f357600080fd5b806370a082311461022f578063715018a61461024257806383197ef01461024a5780638da5cb5b1461025257806395d89b411461026357600080fd5b80632a56681d116100ff5780632a56681d146101cc57806342842e0e146101ed5780634e43aedd146102005780635e4005be146102095780636352211e1461021c57600080fd5b806301ffc9a71461013c57806306fdde0314610164578063081812fc14610179578063095ea7b3146101a457806323b872dd146101b9575b600080fd5b61014f61014a366004611527565b610306565b60405190151581526020015b60405180910390f35b61016c610358565b60405161015b91906116a5565b61018c6101873660046115f5565b6103ea565b6040516001600160a01b03909116815260200161015b565b6101b76101b23660046114e2565b610411565b005b6101b76101c736600461139c565b61052c565b6101df6101da36600461155f565b61055d565b60405190815260200161015b565b6101b76101fb36600461139c565b610644565b6101df60095481565b6101b76102173660046115f5565b61065f565b61018c61022a3660046115f5565b6107b5565b6101df61023d366004611350565b610815565b6101b761089b565b6101b76108af565b6006546001600160a01b031661018c565b61016c6108c5565b6101b76102793660046114ac565b6108d4565b6101b761028c3660046113d7565b6108e3565b61016c61029f3660046115f5565b61091b565b61014f6102b236600461136a565b6001600160a01b03918216600090815260056020908152604080832093909416825291909152205460ff1690565b6101b76102ee366004611350565b61098f565b600a5461018c906001600160a01b031681565b60006001600160e01b031982166380ac58cd60e01b148061033757506001600160e01b03198216635b5e139f60e01b145b8061035257506301ffc9a760e01b6001600160e01b03198316145b92915050565b606060008054610367906117c7565b80601f0160208091040260200160405190810160405280929190818152602001828054610393906117c7565b80156103e05780601f106103b5576101008083540402835291602001916103e0565b820191906000526020600020905b8154815290600101906020018083116103c357829003601f168201915b5050505050905090565b60006103f582610a08565b506000908152600460205260409020546001600160a01b031690565b600061041c826107b5565b9050806001600160a01b0316836001600160a01b0316141561048f5760405162461bcd60e51b815260206004820152602160248201527f4552433732313a20617070726f76616c20746f2063757272656e74206f776e656044820152603960f91b60648201526084015b60405180910390fd5b336001600160a01b03821614806104ab57506104ab81336102b2565b61051d5760405162461bcd60e51b815260206004820152603e60248201527f4552433732313a20617070726f76652063616c6c6572206973206e6f7420746f60448201527f6b656e206f776e6572206e6f7220617070726f76656420666f7220616c6c00006064820152608401610486565b6105278383610a67565b505050565b6105363382610ad5565b6105525760405162461bcd60e51b81526004016104869061170a565b610527838383610b54565b600061056d600780546001019055565b600061057860075490565b90506105843382610cf0565b3360009081526008602052604081208261271081106105b357634e487b7160e01b600052603260045260246000fd5b6006020182815590506105ca600182018a8a611254565b506105d9600282018888611254565b506003810180546001600160a01b031916331790556105fc600482018686611254565b5060408051338152602081018490527f3395ddc40fed59f8f3b1895c2baa87edc05f440abaf305838175fa9b1c88948f910160405180910390a1506009559695505050505050565b610527838383604051806020016040528060008152506108e3565b33600090815260086020526040812082612710811061068e57634e487b7160e01b600052603260045260246000fd5b6006020160050154600a54336000908152600860205260408120929350916001600160a01b039091169063412664ae908561271081106106de57634e487b7160e01b600052603260045260246000fd5b600602016003015460405160e083901b6001600160e01b03191681526001600160a01b03909116600482015260248101859052604401602060405180830381600087803b15801561072e57600080fd5b505af1158015610742573d6000803e3d6000fd5b505050506040513d601f19601f82011682018060405250810190610766919061150b565b9050806105275760405162461bcd60e51b815260206004820152601960248201527f546f6b656e7320776572656e2774207472616e736665726564000000000000006044820152606401610486565b6000818152600260205260408120546001600160a01b0316806103525760405162461bcd60e51b8152602060048201526018602482015277115490cdcc8c4e881a5b9d985b1a59081d1bdad95b88125160421b6044820152606401610486565b60006001600160a01b03821661087f5760405162461bcd60e51b815260206004820152602960248201527f4552433732313a2061646472657373207a65726f206973206e6f7420612076616044820152683634b21037bbb732b960b91b6064820152608401610486565b506001600160a01b031660009081526003602052604090205490565b6108a3610d0a565b6108ad6000610d64565b565b6108b7610d0a565b6006546001600160a01b0316ff5b606060018054610367906117c7565b6108df338383610db6565b5050565b6108ed3383610ad5565b6109095760405162461bcd60e51b81526004016104869061170a565b61091584848484610e85565b50505050565b606061092682610a08565b600061093d60408051602081019091526000815290565b9050600081511161095d5760405180602001604052806000815250610988565b8061096784610eb8565b604051602001610978929190611639565b6040516020818303038152906040525b9392505050565b610997610d0a565b6001600160a01b0381166109fc5760405162461bcd60e51b815260206004820152602660248201527f4f776e61626c653a206e6577206f776e657220697320746865207a65726f206160448201526564647265737360d01b6064820152608401610486565b610a0581610d64565b50565b6000818152600260205260409020546001600160a01b0316610a055760405162461bcd60e51b8152602060048201526018602482015277115490cdcc8c4e881a5b9d985b1a59081d1bdad95b88125160421b6044820152606401610486565b600081815260046020526040902080546001600160a01b0319166001600160a01b0384169081179091558190610a9c826107b5565b6001600160a01b03167f8c5be1e5ebec7d5bd14f71427d1e84f3dd0314c0f7b2291e5b200ac8c7c3b92560405160405180910390a45050565b600080610ae1836107b5565b9050806001600160a01b0316846001600160a01b03161480610b2857506001600160a01b0380821660009081526005602090815260408083209388168352929052205460ff165b80610b4c5750836001600160a01b0316610b41846103ea565b6001600160a01b0316145b949350505050565b826001600160a01b0316610b67826107b5565b6001600160a01b031614610bcb5760405162461bcd60e51b815260206004820152602560248201527f4552433732313a207472616e736665722066726f6d20696e636f72726563742060448201526437bbb732b960d91b6064820152608401610486565b6001600160a01b038216610c2d5760405162461bcd60e51b8152602060048201526024808201527f4552433732313a207472616e7366657220746f20746865207a65726f206164646044820152637265737360e01b6064820152608401610486565b610c38600082610a67565b6001600160a01b0383166000908152600360205260408120805460019290610c61908490611784565b90915550506001600160a01b0382166000908152600360205260408120805460019290610c8f908490611758565b909155505060008181526002602052604080822080546001600160a01b0319166001600160a01b0386811691821790925591518493918716917fddf252ad1be2c89b69c2b068fc378daa952ba7f163c4a11628f55a4df523b3ef91a4505050565b6108df828260405180602001604052806000815250610fd2565b6006546001600160a01b031633146108ad5760405162461bcd60e51b815260206004820181905260248201527f4f776e61626c653a2063616c6c6572206973206e6f7420746865206f776e65726044820152606401610486565b600680546001600160a01b038381166001600160a01b0319831681179093556040519116919082907f8be0079c531659141344cd1fd0a4f28419497f9722a3daafe3b4186f6b6457e090600090a35050565b816001600160a01b0316836001600160a01b03161415610e185760405162461bcd60e51b815260206004820152601960248201527f4552433732313a20617070726f766520746f2063616c6c6572000000000000006044820152606401610486565b6001600160a01b03838116600081815260056020908152604080832094871680845294825291829020805460ff191686151590811790915591519182527f17307eab39ab6107e8899845ad3d59bd9653f200f220920489ca2b5937696c31910160405180910390a3505050565b610e90848484610b54565b610e9c84848484611005565b6109155760405162461bcd60e51b8152600401610486906116b8565b606081610edc5750506040805180820190915260018152600360fc1b602082015290565b8160005b8115610f065780610ef081611802565b9150610eff9050600a83611770565b9150610ee0565b60008167ffffffffffffffff811115610f2f57634e487b7160e01b600052604160045260246000fd5b6040519080825280601f01601f191660200182016040528015610f59576020820181803683370190505b5090505b8415610b4c57610f6e600183611784565b9150610f7b600a8661181d565b610f86906030611758565b60f81b818381518110610fa957634e487b7160e01b600052603260045260246000fd5b60200101906001600160f81b031916908160001a905350610fcb600a86611770565b9450610f5d565b610fdc8383611112565b610fe96000848484611005565b6105275760405162461bcd60e51b8152600401610486906116b8565b60006001600160a01b0384163b1561110757604051630a85bd0160e11b81526001600160a01b0385169063150b7a0290611049903390899088908890600401611668565b602060405180830381600087803b15801561106357600080fd5b505af1925050508015611093575060408051601f3d908101601f1916820190925261109091810190611543565b60015b6110ed573d8080156110c1576040519150601f19603f3d011682016040523d82523d6000602084013e6110c6565b606091505b5080516110e55760405162461bcd60e51b8152600401610486906116b8565b805181602001fd5b6001600160e01b031916630a85bd0160e11b149050610b4c565b506001949350505050565b6001600160a01b0382166111685760405162461bcd60e51b815260206004820181905260248201527f4552433732313a206d696e7420746f20746865207a65726f20616464726573736044820152606401610486565b6000818152600260205260409020546001600160a01b0316156111cd5760405162461bcd60e51b815260206004820152601c60248201527f4552433732313a20746f6b656e20616c7265616479206d696e746564000000006044820152606401610486565b6001600160a01b03821660009081526003602052604081208054600192906111f6908490611758565b909155505060008181526002602052604080822080546001600160a01b0319166001600160a01b03861690811790915590518392907fddf252ad1be2c89b69c2b068fc378daa952ba7f163c4a11628f55a4df523b3ef908290a45050565b828054611260906117c7565b90600052602060002090601f01602090048101928261128257600085556112c8565b82601f1061129b5782800160ff198235161785556112c8565b828001600101855582156112c8579182015b828111156112c85782358255916020019190600101906112ad565b506112d49291506112d8565b5090565b5b808211156112d457600081556001016112d9565b80356001600160a01b038116811461130457600080fd5b919050565b60008083601f84011261131a578182fd5b50813567ffffffffffffffff811115611331578182fd5b60208301915083602082850101111561134957600080fd5b9250929050565b600060208284031215611361578081fd5b610988826112ed565b6000806040838503121561137c578081fd5b611385836112ed565b9150611393602084016112ed565b90509250929050565b6000806000606084860312156113b0578081fd5b6113b9846112ed565b92506113c7602085016112ed565b9150604084013590509250925092565b600080600080608085870312156113ec578081fd5b6113f5856112ed565b9350611403602086016112ed565b925060408501359150606085013567ffffffffffffffff80821115611426578283fd5b818701915087601f830112611439578283fd5b81358181111561144b5761144b61185d565b604051601f8201601f19908116603f011681019083821181831017156114735761147361185d565b816040528281528a602084870101111561148b578586fd5b82602086016020830137918201602001949094529598949750929550505050565b600080604083850312156114be578182fd5b6114c7836112ed565b915060208301356114d781611873565b809150509250929050565b600080604083850312156114f4578182fd5b6114fd836112ed565b946020939093013593505050565b60006020828403121561151c578081fd5b815161098881611873565b600060208284031215611538578081fd5b813561098881611881565b600060208284031215611554578081fd5b815161098881611881565b60008060008060008060608789031215611577578182fd5b863567ffffffffffffffff8082111561158e578384fd5b61159a8a838b01611309565b909850965060208901359150808211156115b2578384fd5b6115be8a838b01611309565b909650945060408901359150808211156115d6578384fd5b506115e389828a01611309565b979a9699509497509295939492505050565b600060208284031215611606578081fd5b5035919050565b6000815180845261162581602086016020860161179b565b601f01601f19169290920160200192915050565b6000835161164b81846020880161179b565b83519083019061165f81836020880161179b565b01949350505050565b6001600160a01b038581168252841660208201526040810183905260806060820181905260009061169b9083018461160d565b9695505050505050565b602081526000610988602083018461160d565b60208082526032908201527f4552433732313a207472616e7366657220746f206e6f6e20455243373231526560408201527131b2b4bb32b91034b6b83632b6b2b73a32b960711b606082015260800190565b6020808252602e908201527f4552433732313a2063616c6c6572206973206e6f7420746f6b656e206f776e6560408201526d1c881b9bdc88185c1c1c9bdd995960921b606082015260800190565b6000821982111561176b5761176b611831565b500190565b60008261177f5761177f611847565b500490565b60008282101561179657611796611831565b500390565b60005b838110156117b657818101518382015260200161179e565b838111156109155750506000910152565b600181811c908216806117db57607f821691505b602082108114156117fc57634e487b7160e01b600052602260045260246000fd5b50919050565b600060001982141561181657611816611831565b5060010190565b60008261182c5761182c611847565b500690565b634e487b7160e01b600052601160045260246000fd5b634e487b7160e01b600052601260045260246000fd5b634e487b7160e01b600052604160045260246000fd5b8015158114610a0557600080fd5b6001600160e01b031981168114610a0557600080fdfea2646970667358221220bc0e1bffb1823479117e746ebbb6ac0492bc3075c46f480e9381d2789de2bcbe64736f6c63430008040033",
  "linkReferences": {},
  "deployedLinkReferences": {}
}