{
  "_format": "hh-sol-artifact-1",
  "contractName": "Prime",
  "sourceName": "contracts/Prime.sol",
  "abi": [
    {
      "inputs": [],
      "stateMutability": "nonpayable",
      "type": "constructor"
    },
    {
      "anonymous": false,
      "inputs": [
        {
          "indexed": true,
          "internalType": "address",
          "name": "owner",
          "type": "address"
        },
        {
          "indexed": true,
          "internalType": "address",
          "name": "spender",
          "type": "address"
        },
        {
          "indexed": false,
          "internalType": "uint256",
          "name": "value",
          "type": "uint256"
        }
      ],
      "name": "Approval",
      "type": "event"
    },
    {
      "anonymous": false,
      "inputs": [
        {
          "indexed": true,
          "internalType": "address",
          "name": "previousOwner",
          "type": "address"
        },
        {
          "indexed": true,
          "internalType": "address",
          "name": "newOwner",
          "type": "address"
        }
      ],
      "name": "OwnershipTransferred",
      "type": "event"
    },
    {
      "anonymous": false,
      "inputs": [],
      "name": "TokensBought",
      "type": "event"
    },
    {
      "anonymous": false,
      "inputs": [
        {
          "indexed": true,
          "internalType": "address",
          "name": "from",
          "type": "address"
        },
        {
          "indexed": true,
          "internalType": "address",
          "name": "to",
          "type": "address"
        },
        {
          "indexed": false,
          "internalType": "uint256",
          "name": "value",
          "type": "uint256"
        }
      ],
      "name": "Transfer",
      "type": "event"
    },
    {
      "stateMutability": "payable",
      "type": "fallback"
    },
    {
      "inputs": [
        {
          "internalType": "address",
          "name": "owner",
          "type": "address"
        },
        {
          "internalType": "address",
          "name": "spender",
          "type": "address"
        }
      ],
      "name": "allowance",
      "outputs": [
        {
          "internalType": "uint256",
          "name": "",
          "type": "uint256"
        }
      ],
      "stateMutability": "view",
      "type": "function"
    },
    {
      "inputs": [
        {
          "internalType": "address",
          "name": "spender",
          "type": "address"
        },
        {
          "internalType": "uint256",
          "name": "amount",
          "type": "uint256"
        }
      ],
      "name": "approve",
      "outputs": [
        {
          "internalType": "bool",
          "name": "",
          "type": "bool"
        }
      ],
      "stateMutability": "nonpayable",
      "type": "function"
    },
    {
      "inputs": [],
      "name": "askQuestion",
      "outputs": [],
      "stateMutability": "payable",
      "type": "function"
    },
    {
      "inputs": [
        {
          "internalType": "address",
          "name": "account",
          "type": "address"
        }
      ],
      "name": "balanceOf",
      "outputs": [
        {
          "internalType": "uint256",
          "name": "",
          "type": "uint256"
        }
      ],
      "stateMutability": "view",
      "type": "function"
    },
    {
      "inputs": [],
      "name": "buyTokens",
      "outputs": [],
      "stateMutability": "payable",
      "type": "function"
    },
    {
      "inputs": [],
      "name": "decimals",
      "outputs": [
        {
          "internalType": "uint8",
          "name": "",
          "type": "uint8"
        }
      ],
      "stateMutability": "view",
      "type": "function"
    },
    {
      "inputs": [
        {
          "internalType": "address",
          "name": "spender",
          "type": "address"
        },
        {
          "internalType": "uint256",
          "name": "subtractedValue",
          "type": "uint256"
        }
      ],
      "name": "decreaseAllowance",
      "outputs": [
        {
          "internalType": "bool",
          "name": "",
          "type": "bool"
        }
      ],
      "stateMutability": "nonpayable",
      "type": "function"
    },
    {
      "inputs": [
        {
          "internalType": "address",
          "name": "_user",
          "type": "address"
        }
      ],
      "name": "getEthBalance",
      "outputs": [
        {
          "internalType": "uint256",
          "name": "",
          "type": "uint256"
        }
      ],
      "stateMutability": "view",
      "type": "function"
    },
    {
      "inputs": [
        {
          "internalType": "address",
          "name": "spender",
          "type": "address"
        },
        {
          "internalType": "uint256",
          "name": "addedValue",
          "type": "uint256"
        }
      ],
      "name": "increaseAllowance",
      "outputs": [
        {
          "internalType": "bool",
          "name": "",
          "type": "bool"
        }
      ],
      "stateMutability": "nonpayable",
      "type": "function"
    },
    {
      "inputs": [
        {
          "internalType": "uint256",
          "name": "amount",
          "type": "uint256"
        }
      ],
      "name": "modifyTokenBuyPrice",
      "outputs": [],
      "stateMutability": "nonpayable",
      "type": "function"
    },
    {
      "inputs": [],
      "name": "name",
      "outputs": [
        {
          "internalType": "string",
          "name": "",
          "type": "string"
        }
      ],
      "stateMutability": "view",
      "type": "function"
    },
    {
      "inputs": [],
      "name": "owner",
      "outputs": [
        {
          "internalType": "address",
          "name": "",
          "type": "address"
        }
      ],
      "stateMutability": "view",
      "type": "function"
    },
    {
      "inputs": [],
      "name": "renounceOwnership",
      "outputs": [],
      "stateMutability": "nonpayable",
      "type": "function"
    },
    {
      "inputs": [
        {
          "internalType": "uint256",
          "name": "amount",
          "type": "uint256"
        }
      ],
      "name": "sellToken",
      "outputs": [],
      "stateMutability": "payable",
      "type": "function"
    },
    {
      "inputs": [
        {
          "internalType": "address",
          "name": "_to",
          "type": "address"
        },
        {
          "internalType": "uint256",
          "name": "amount",
          "type": "uint256"
        }
      ],
      "name": "sendToken",
      "outputs": [
        {
          "internalType": "bool",
          "name": "",
          "type": "bool"
        }
      ],
      "stateMutability": "nonpayable",
      "type": "function"
    },
    {
      "inputs": [],
      "name": "symbol",
      "outputs": [
        {
          "internalType": "string",
          "name": "",
          "type": "string"
        }
      ],
      "stateMutability": "view",
      "type": "function"
    },
    {
      "inputs": [],
      "name": "tokenPrice",
      "outputs": [
        {
          "internalType": "uint256",
          "name": "",
          "type": "uint256"
        }
      ],
      "stateMutability": "view",
      "type": "function"
    },
    {
      "inputs": [],
      "name": "totalSupply",
      "outputs": [
        {
          "internalType": "uint256",
          "name": "",
          "type": "uint256"
        }
      ],
      "stateMutability": "view",
      "type": "function"
    },
    {
      "inputs": [
        {
          "internalType": "address",
          "name": "to",
          "type": "address"
        },
        {
          "internalType": "uint256",
          "name": "amount",
          "type": "uint256"
        }
      ],
      "name": "transfer",
      "outputs": [
        {
          "internalType": "bool",
          "name": "",
          "type": "bool"
        }
      ],
      "stateMutability": "nonpayable",
      "type": "function"
    },
    {
      "inputs": [
        {
          "internalType": "address",
          "name": "from",
          "type": "address"
        },
        {
          "internalType": "address",
          "name": "to",
          "type": "address"
        },
        {
          "internalType": "uint256",
          "name": "amount",
          "type": "uint256"
        }
      ],
      "name": "transferFrom",
      "outputs": [
        {
          "internalType": "bool",
          "name": "",
          "type": "bool"
        }
      ],
      "stateMutability": "nonpayable",
      "type": "function"
    },
    {
      "inputs": [
        {
          "internalType": "address",
          "name": "newOwner",
          "type": "address"
        }
      ],
      "name": "transferOwnership",
      "outputs": [],
      "stateMutability": "nonpayable",
      "type": "function"
    },
    {
      "stateMutability": "payable",
      "type": "receive"
    }
  ],
  "bytecode": "0x608060405266038d7ea4c680006006556209c720600a553480156200002357600080fd5b5060405180604001604052806006815260200165141c9a5b585b60d21b8152506040518060400160405280600381526020016250524960e81b81525081600390805190602001906200007792919062000203565b5080516200008d90600490602084019062000203565b505050620000aa620000a4620000c560201b60201c565b620000c9565b620000bf33683635c9adc5dea000006200011b565b6200030b565b3390565b600580546001600160a01b038381166001600160a01b0319831681179093556040519116919082907f8be0079c531659141344cd1fd0a4f28419497f9722a3daafe3b4186f6b6457e090600090a35050565b6001600160a01b038216620001765760405162461bcd60e51b815260206004820152601f60248201527f45524332303a206d696e7420746f20746865207a65726f206164647265737300604482015260640160405180910390fd5b80600260008282546200018a9190620002a9565b90915550506001600160a01b03821660009081526020819052604081208054839290620001b9908490620002a9565b90915550506040518181526001600160a01b038316906000907fddf252ad1be2c89b69c2b068fc378daa952ba7f163c4a11628f55a4df523b3ef9060200160405180910390a35050565b8280546200021190620002ce565b90600052602060002090601f01602090048101928262000235576000855562000280565b82601f106200025057805160ff191683800117855562000280565b8280016001018555821562000280579182015b828111156200028057825182559160200191906001019062000263565b506200028e92915062000292565b5090565b5b808211156200028e576000815560010162000293565b60008219821115620002c957634e487b7160e01b81526011600452602481fd5b500190565b600181811c90821680620002e357607f821691505b602082108114156200030557634e487b7160e01b600052602260045260246000fd5b50919050565b611037806200031b6000396000f3fe60806040526004361061012e5760003560e01c8063715018a6116100ab578063a457c2d71161006f578063a457c2d714610364578063a9059cbb14610384578063d0febe4c146103a4578063d1827e8514610200578063dd62ed3e146103ac578063f2fde38b146103cc57610163565b8063715018a6146102dc5780637ff9b596146102f1578063834dc984146103075780638da5cb5b1461032757806395d89b411461034f57610163565b8063313ce567116100f2578063313ce56714610222578063395093511461023e578063412664ae1461025e5780634d2301cc1461027e57806370a08231146102a657610163565b806306fdde0314610173578063095ea7b31461019e57806318160ddd146101ce5780632397e4d7146101ed57806323b872dd1461020257610163565b36610163576000600654346101439190610f71565b90506101603361015b83670de0b6b3a7640000610f91565b6103ec565b50005b6000600654346101439190610f71565b34801561017f57600080fd5b506101886104d0565b6040516101959190610f06565b60405180910390f35b3480156101aa57600080fd5b506101be6101b9366004610ec5565b610562565b6040519015158152602001610195565b3480156101da57600080fd5b506002545b604051908152602001610195565b6102006101fb366004610eee565b61057a565b005b34801561020e57600080fd5b506101be61021d366004610e8a565b61077e565b34801561022e57600080fd5b5060405160128152602001610195565b34801561024a57600080fd5b506101be610259366004610ec5565b6107a2565b34801561026a57600080fd5b506101be610279366004610ec5565b6107c4565b34801561028a57600080fd5b506101df610299366004610e37565b6001600160a01b03163190565b3480156102b257600080fd5b506101df6102c1366004610e37565b6001600160a01b031660009081526020819052604090205490565b3480156102e857600080fd5b5061020061083f565b3480156102fd57600080fd5b506101df60065481565b34801561031357600080fd5b50610200610322366004610eee565b610853565b34801561033357600080fd5b506005546040516001600160a01b039091168152602001610195565b34801561035b57600080fd5b50610188610873565b34801561037057600080fd5b506101be61037f366004610ec5565b610882565b34801561039057600080fd5b506101be61039f366004610ec5565b6108fd565b61020061090b565b3480156103b857600080fd5b506101df6103c7366004610e58565b61095f565b3480156103d857600080fd5b506102006103e7366004610e37565b61098a565b6001600160a01b0382166104475760405162461bcd60e51b815260206004820152601f60248201527f45524332303a206d696e7420746f20746865207a65726f20616464726573730060448201526064015b60405180910390fd5b80600260008282546104599190610f59565b90915550506001600160a01b03821660009081526020819052604081208054839290610486908490610f59565b90915550506040518181526001600160a01b038316906000907fddf252ad1be2c89b69c2b068fc378daa952ba7f163c4a11628f55a4df523b3ef9060200160405180910390a35050565b6060600380546104df90610fb0565b80601f016020809104026020016040519081016040528092919081815260200182805461050b90610fb0565b80156105585780601f1061052d57610100808354040283529160200191610558565b820191906000526020600020905b81548152906001019060200180831161053b57829003601f168201915b5050505050905090565b600033610570818585610a03565b5060019392505050565b600081116105c35760405162461bcd60e51b8152602060048201526016602482015275446f6e277420796f75206861766520746f6b656e733f60501b604482015260640161043e565b336000908152602081905260409020548181101561061d5760405162461bcd60e51b8152602060048201526017602482015276596f75722062616c616e636520697320746f6f206c6f7760481b604482015260640161043e565b60006006548361062d9190610f91565b905047818110156106805760405162461bcd60e51b815260206004820152601f60248201527f436f6e7261637420646f65736e2774206861766520656e6f7567682045746800604482015260640161043e565b60006106983061039f87670de0b6b3a7640000610f91565b9050806106e75760405162461bcd60e51b815260206004820152601860248201527f4661696c656420746f207265636569766520746f6b656e730000000000000000604482015260640161043e565b604051600090339085908381818185875af1925050503d8060008114610729576040519150601f19603f3d011682016040523d82523d6000602084013e61072e565b606091505b50509050806107765760405162461bcd60e51b81526020600482015260146024820152732330b4b632b2103a379039b2b7321022ba3432b960611b604482015260640161043e565b505050505050565b60003361078c858285610b27565b610797858585610ba1565b506001949350505050565b6000336105708185856107b5838361095f565b6107bf9190610f59565b610a03565b336000908152602081905260408120548281101561081e5760405162461bcd60e51b8152602060048201526017602482015276596f75722062616c616e636520697320746f6f206c6f7760481b604482015260640161043e565b60006108368561039f86670de0b6b3a7640000610f91565b95945050505050565b610847610d6f565b6108516000610dc9565b565b61085b610d6f565b61086d81670de0b6b3a7640000610f91565b60065550565b6060600480546104df90610fb0565b60003381610890828661095f565b9050838110156108f05760405162461bcd60e51b815260206004820152602560248201527f45524332303a2064656372656173656420616c6c6f77616e63652062656c6f77604482015264207a65726f60d81b606482015260840161043e565b6107978286868403610a03565b600033610570818585610ba1565b60006006543461091b9190610f71565b90506109333361015b83670de0b6b3a7640000610f91565b6040517f96425b7a720187cf6405eb681811f71b1e724ca847ca9e336ef36a39f45c503890600090a150565b6001600160a01b03918216600090815260016020908152604080832093909416825291909152205490565b610992610d6f565b6001600160a01b0381166109f75760405162461bcd60e51b815260206004820152602660248201527f4f776e61626c653a206e6577206f776e657220697320746865207a65726f206160448201526564647265737360d01b606482015260840161043e565b610a0081610dc9565b50565b6001600160a01b038316610a655760405162461bcd60e51b8152602060048201526024808201527f45524332303a20617070726f76652066726f6d20746865207a65726f206164646044820152637265737360e01b606482015260840161043e565b6001600160a01b038216610ac65760405162461bcd60e51b815260206004820152602260248201527f45524332303a20617070726f766520746f20746865207a65726f206164647265604482015261737360f01b606482015260840161043e565b6001600160a01b0383811660008181526001602090815260408083209487168084529482529182902085905590518481527f8c5be1e5ebec7d5bd14f71427d1e84f3dd0314c0f7b2291e5b200ac8c7c3b925910160405180910390a3505050565b6000610b33848461095f565b90506000198114610b9b5781811015610b8e5760405162461bcd60e51b815260206004820152601d60248201527f45524332303a20696e73756666696369656e7420616c6c6f77616e6365000000604482015260640161043e565b610b9b8484848403610a03565b50505050565b6001600160a01b038316610c055760405162461bcd60e51b815260206004820152602560248201527f45524332303a207472616e736665722066726f6d20746865207a65726f206164604482015264647265737360d81b606482015260840161043e565b6001600160a01b038216610c675760405162461bcd60e51b815260206004820152602360248201527f45524332303a207472616e7366657220746f20746865207a65726f206164647260448201526265737360e81b606482015260840161043e565b6001600160a01b03831660009081526020819052604090205481811015610cdf5760405162461bcd60e51b815260206004820152602660248201527f45524332303a207472616e7366657220616d6f756e7420657863656564732062604482015265616c616e636560d01b606482015260840161043e565b6001600160a01b03808516600090815260208190526040808220858503905591851681529081208054849290610d16908490610f59565b92505081905550826001600160a01b0316846001600160a01b03167fddf252ad1be2c89b69c2b068fc378daa952ba7f163c4a11628f55a4df523b3ef84604051610d6291815260200190565b60405180910390a3610b9b565b6005546001600160a01b031633146108515760405162461bcd60e51b815260206004820181905260248201527f4f776e61626c653a2063616c6c6572206973206e6f7420746865206f776e6572604482015260640161043e565b600580546001600160a01b038381166001600160a01b0319831681179093556040519116919082907f8be0079c531659141344cd1fd0a4f28419497f9722a3daafe3b4186f6b6457e090600090a35050565b80356001600160a01b0381168114610e3257600080fd5b919050565b600060208284031215610e48578081fd5b610e5182610e1b565b9392505050565b60008060408385031215610e6a578081fd5b610e7383610e1b565b9150610e8160208401610e1b565b90509250929050565b600080600060608486031215610e9e578081fd5b610ea784610e1b565b9250610eb560208501610e1b565b9150604084013590509250925092565b60008060408385031215610ed7578182fd5b610ee083610e1b565b946020939093013593505050565b600060208284031215610eff578081fd5b5035919050565b6000602080835283518082850152825b81811015610f3257858101830151858201604001528201610f16565b81811115610f435783604083870101525b50601f01601f1916929092016040019392505050565b60008219821115610f6c57610f6c610feb565b500190565b600082610f8c57634e487b7160e01b81526012600452602481fd5b500490565b6000816000190483118215151615610fab57610fab610feb565b500290565b600181811c90821680610fc457607f821691505b60208210811415610fe557634e487b7160e01b600052602260045260246000fd5b50919050565b634e487b7160e01b600052601160045260246000fdfea2646970667358221220f22831901c4ea2d082b5e92f87c6374513e849d295cabeb8780a86845ccb334964736f6c63430008040033",
  "linkReferences": {},
  "deployedLinkReferences": {}
}